{
  "_format": "hh-sol-artifact-1",
  "contractName": "NFTMarket",
  "sourceName": "contracts/NFTMarket.sol",
  "abi": [
    {
      "inputs": [],
      "stateMutability": "nonpayable",
      "type": "constructor"
    },
    {
      "anonymous": false,
      "inputs": [
        {
          "indexed": true,
          "internalType": "uint256",
          "name": "itemId",
          "type": "uint256"
        },
        {
          "indexed": true,
          "internalType": "address",
          "name": "nftContract",
          "type": "address"
        },
        {
          "indexed": true,
          "internalType": "uint256",
          "name": "tokenId",
          "type": "uint256"
        },
        {
          "indexed": false,
          "internalType": "address",
          "name": "seller",
          "type": "address"
        },
        {
          "indexed": false,
          "internalType": "address",
          "name": "owner",
          "type": "address"
        },
        {
          "indexed": false,
          "internalType": "uint256",
          "name": "price",
          "type": "uint256"
        },
        {
          "indexed": false,
          "internalType": "bool",
          "name": "sold",
          "type": "bool"
        }
      ],
      "name": "MarketItemCreated",
      "type": "event"
    },
    {
      "inputs": [
        {
          "internalType": "address",
          "name": "nftContract",
          "type": "address"
        },
        {
          "internalType": "uint256",
          "name": "tokenId",
          "type": "uint256"
        },
        {
          "internalType": "uint256",
          "name": "price",
          "type": "uint256"
        }
      ],
      "name": "createMarketItem",
      "outputs": [],
      "stateMutability": "payable",
      "type": "function"
    },
    {
      "inputs": [
        {
          "internalType": "address",
          "name": "nftContract",
          "type": "address"
        },
        {
          "internalType": "uint256",
          "name": "itemId",
          "type": "uint256"
        }
      ],
      "name": "createMarketSale",
      "outputs": [],
      "stateMutability": "payable",
      "type": "function"
    },
    {
      "inputs": [],
      "name": "fetchItemsCreated",
      "outputs": [
        {
          "components": [
            {
              "internalType": "uint256",
              "name": "itemId",
              "type": "uint256"
            },
            {
              "internalType": "address",
              "name": "nftContract",
              "type": "address"
            },
            {
              "internalType": "uint256",
              "name": "tokenId",
              "type": "uint256"
            },
            {
              "internalType": "address payable",
              "name": "seller",
              "type": "address"
            },
            {
              "internalType": "address payable",
              "name": "owner",
              "type": "address"
            },
            {
              "internalType": "uint256",
              "name": "price",
              "type": "uint256"
            },
            {
              "internalType": "bool",
              "name": "sold",
              "type": "bool"
            }
          ],
          "internalType": "struct NFTMarket.MarketItem[]",
          "name": "",
          "type": "tuple[]"
        }
      ],
      "stateMutability": "view",
      "type": "function"
    },
    {
      "inputs": [],
      "name": "fetchMyNFTs",
      "outputs": [
        {
          "components": [
            {
              "internalType": "uint256",
              "name": "itemId",
              "type": "uint256"
            },
            {
              "internalType": "address",
              "name": "nftContract",
              "type": "address"
            },
            {
              "internalType": "uint256",
              "name": "tokenId",
              "type": "uint256"
            },
            {
              "internalType": "address payable",
              "name": "seller",
              "type": "address"
            },
            {
              "internalType": "address payable",
              "name": "owner",
              "type": "address"
            },
            {
              "internalType": "uint256",
              "name": "price",
              "type": "uint256"
            },
            {
              "internalType": "bool",
              "name": "sold",
              "type": "bool"
            }
          ],
          "internalType": "struct NFTMarket.MarketItem[]",
          "name": "",
          "type": "tuple[]"
        }
      ],
      "stateMutability": "view",
      "type": "function"
    },
    {
      "inputs": [],
      "name": "fetchUnsoldMarketItems",
      "outputs": [
        {
          "components": [
            {
              "internalType": "uint256",
              "name": "itemId",
              "type": "uint256"
            },
            {
              "internalType": "address",
              "name": "nftContract",
              "type": "address"
            },
            {
              "internalType": "uint256",
              "name": "tokenId",
              "type": "uint256"
            },
            {
              "internalType": "address payable",
              "name": "seller",
              "type": "address"
            },
            {
              "internalType": "address payable",
              "name": "owner",
              "type": "address"
            },
            {
              "internalType": "uint256",
              "name": "price",
              "type": "uint256"
            },
            {
              "internalType": "bool",
              "name": "sold",
              "type": "bool"
            }
          ],
          "internalType": "struct NFTMarket.MarketItem[]",
          "name": "",
          "type": "tuple[]"
        }
      ],
      "stateMutability": "view",
      "type": "function"
    },
    {
      "inputs": [],
      "name": "getListingPrice",
      "outputs": [
        {
          "internalType": "uint256",
          "name": "",
          "type": "uint256"
        }
      ],
      "stateMutability": "view",
      "type": "function"
    }
  ],
  "bytecode": "0x60806040526658d15e1762800060045534801561001b57600080fd5b50600160008190555033600360006101000a81548173ffffffffffffffffffffffffffffffffffffffff021916908373ffffffffffffffffffffffffffffffffffffffff1602179055506118d8806100746000396000f3fe6080604052600436106100555760003560e01c806312e855851461005a578063202e37401461008557806358eb2df5146100b05780637628ff55146100cc578063c23b139e146100f7578063f064c32e14610113575b600080fd5b34801561006657600080fd5b5061006f61013e565b60405161007c91906111cb565b60405180910390f35b34801561009157600080fd5b5061009a610148565b6040516100a791906113af565b60405180910390f35b6100ca60048036038101906100c5919061142e565b6104ac565b005b3480156100d857600080fd5b506100e1610810565b6040516100ee91906113af565b60405180910390f35b610111600480360381019061010c9190611481565b610af0565b005b34801561011f57600080fd5b50610128610da9565b60405161013591906113af565b60405180910390f35b6000600454905090565b60606000610156600161110d565b905060008060005b838110156101ff573373ffffffffffffffffffffffffffffffffffffffff166005600060018461018e91906114f0565b815260200190815260200160002060040160009054906101000a900473ffffffffffffffffffffffffffffffffffffffff1673ffffffffffffffffffffffffffffffffffffffff1614156101ec576001836101e991906114f0565b92505b80806101f790611546565b91505061015e565b5060008267ffffffffffffffff81111561021c5761021b61158f565b5b60405190808252806020026020018201604052801561025557816020015b610242611131565b81526020019060019003908161023a5790505b50905060005b848110156104a1573373ffffffffffffffffffffffffffffffffffffffff166005600060018461028b91906114f0565b815260200190815260200160002060040160009054906101000a900473ffffffffffffffffffffffffffffffffffffffff1673ffffffffffffffffffffffffffffffffffffffff16141561048e576000600560006001846102ec91906114f0565b81526020019081526020016000206000015490506000600560008381526020019081526020016000209050806040518060e0016040529081600082015481526020016001820160009054906101000a900473ffffffffffffffffffffffffffffffffffffffff1673ffffffffffffffffffffffffffffffffffffffff1673ffffffffffffffffffffffffffffffffffffffff168152602001600282015481526020016003820160009054906101000a900473ffffffffffffffffffffffffffffffffffffffff1673ffffffffffffffffffffffffffffffffffffffff1673ffffffffffffffffffffffffffffffffffffffff1681526020016004820160009054906101000a900473ffffffffffffffffffffffffffffffffffffffff1673ffffffffffffffffffffffffffffffffffffffff1673ffffffffffffffffffffffffffffffffffffffff168152602001600582015481526020016006820160009054906101000a900460ff161515151581525050848681518110610471576104706115be565b5b602002602001018190525060018561048991906114f0565b945050505b808061049990611546565b91505061025b565b508094505050505090565b600260005414156104f2576040517f08c379a00000000000000000000000000000000000000000000000000000000081526004016104e99061164a565b60405180910390fd5b60026000819055506000811161053d576040517f08c379a0000000000000000000000000000000000000000000000000000000008152600401610534906116b6565b60405180910390fd5b6004543414610581576040517f08c379a000000000000000000000000000000000000000000000000000000000815260040161057890611748565b60405180910390fd5b61058b600161111b565b6000610597600161110d565b90506040518060e001604052808281526020018573ffffffffffffffffffffffffffffffffffffffff1681526020018481526020013373ffffffffffffffffffffffffffffffffffffffff168152602001600073ffffffffffffffffffffffffffffffffffffffff16815260200183815260200160001515815250600560008381526020019081526020016000206000820151816000015560208201518160010160006101000a81548173ffffffffffffffffffffffffffffffffffffffff021916908373ffffffffffffffffffffffffffffffffffffffff1602179055506040820151816002015560608201518160030160006101000a81548173ffffffffffffffffffffffffffffffffffffffff021916908373ffffffffffffffffffffffffffffffffffffffff16021790555060808201518160040160006101000a81548173ffffffffffffffffffffffffffffffffffffffff021916908373ffffffffffffffffffffffffffffffffffffffff16021790555060a0820151816005015560c08201518160060160006101000a81548160ff0219169083151502179055509050508373ffffffffffffffffffffffffffffffffffffffff166323b872dd3330866040518463ffffffff1660e01b815260040161077893929190611777565b600060405180830381600087803b15801561079257600080fd5b505af11580156107a6573d6000803e3d6000fd5b50505050828473ffffffffffffffffffffffffffffffffffffffff16827f045dfa01dcba2b36aba1d3dc4a874f4b0c5d2fbeb8d2c4b34a7d88c8d8f929d13360008760006040516107fa94939291906117bd565b60405180910390a4506001600081905550505050565b6060600061081e600161110d565b9050600061082c600261110d565b610836600161110d565b6108409190611802565b90506000808267ffffffffffffffff81111561085f5761085e61158f565b5b60405190808252806020026020018201604052801561089857816020015b610885611131565b81526020019060019003908161087d5790505b50905060005b84811015610ae557600073ffffffffffffffffffffffffffffffffffffffff16600560006001846108cf91906114f0565b815260200190815260200160002060040160009054906101000a900473ffffffffffffffffffffffffffffffffffffffff1673ffffffffffffffffffffffffffffffffffffffff161415610ad25760006005600060018461093091906114f0565b81526020019081526020016000206000015490506000600560008381526020019081526020016000209050806040518060e0016040529081600082015481526020016001820160009054906101000a900473ffffffffffffffffffffffffffffffffffffffff1673ffffffffffffffffffffffffffffffffffffffff1673ffffffffffffffffffffffffffffffffffffffff168152602001600282015481526020016003820160009054906101000a900473ffffffffffffffffffffffffffffffffffffffff1673ffffffffffffffffffffffffffffffffffffffff1673ffffffffffffffffffffffffffffffffffffffff1681526020016004820160009054906101000a900473ffffffffffffffffffffffffffffffffffffffff1673ffffffffffffffffffffffffffffffffffffffff1673ffffffffffffffffffffffffffffffffffffffff168152602001600582015481526020016006820160009054906101000a900460ff161515151581525050848681518110610ab557610ab46115be565b5b6020026020010181905250600185610acd91906114f0565b945050505b8080610add90611546565b91505061089e565b508094505050505090565b60026000541415610b36576040517f08c379a0000000000000000000000000000000000000000000000000000000008152600401610b2d9061164a565b60405180910390fd5b6002600081905550600060056000838152602001908152602001600020600501549050600060056000848152602001908152602001600020600201549050813414610bb6576040517f08c379a0000000000000000000000000000000000000000000000000000000008152600401610bad90611882565b60405180910390fd5b6005600084815260200190815260200160002060030160009054906101000a900473ffffffffffffffffffffffffffffffffffffffff1673ffffffffffffffffffffffffffffffffffffffff166108fc349081150290604051600060405180830381858888f19350505050158015610c32573d6000803e3d6000fd5b508373ffffffffffffffffffffffffffffffffffffffff166323b872dd3033846040518463ffffffff1660e01b8152600401610c7093929190611777565b600060405180830381600087803b158015610c8a57600080fd5b505af1158015610c9e573d6000803e3d6000fd5b50505050336005600085815260200190815260200160002060040160006101000a81548173ffffffffffffffffffffffffffffffffffffffff021916908373ffffffffffffffffffffffffffffffffffffffff16021790555060016005600085815260200190815260200160002060060160006101000a81548160ff021916908315150217905550610d30600261111b565b600360009054906101000a900473ffffffffffffffffffffffffffffffffffffffff1673ffffffffffffffffffffffffffffffffffffffff166108fc6004549081150290604051600060405180830381858888f19350505050158015610d9a573d6000803e3d6000fd5b50505060016000819055505050565b60606000610db7600161110d565b905060008060005b83811015610e60573373ffffffffffffffffffffffffffffffffffffffff1660056000600184610def91906114f0565b815260200190815260200160002060030160009054906101000a900473ffffffffffffffffffffffffffffffffffffffff1673ffffffffffffffffffffffffffffffffffffffff161415610e4d57600183610e4a91906114f0565b92505b8080610e5890611546565b915050610dbf565b5060008267ffffffffffffffff811115610e7d57610e7c61158f565b5b604051908082528060200260200182016040528015610eb657816020015b610ea3611131565b815260200190600190039081610e9b5790505b50905060005b84811015611102573373ffffffffffffffffffffffffffffffffffffffff1660056000600184610eec91906114f0565b815260200190815260200160002060030160009054906101000a900473ffffffffffffffffffffffffffffffffffffffff1673ffffffffffffffffffffffffffffffffffffffff1614156110ef57600060056000600184610f4d91906114f0565b81526020019081526020016000206000015490506000600560008381526020019081526020016000209050806040518060e0016040529081600082015481526020016001820160009054906101000a900473ffffffffffffffffffffffffffffffffffffffff1673ffffffffffffffffffffffffffffffffffffffff1673ffffffffffffffffffffffffffffffffffffffff168152602001600282015481526020016003820160009054906101000a900473ffffffffffffffffffffffffffffffffffffffff1673ffffffffffffffffffffffffffffffffffffffff1673ffffffffffffffffffffffffffffffffffffffff1681526020016004820160009054906101000a900473ffffffffffffffffffffffffffffffffffffffff1673ffffffffffffffffffffffffffffffffffffffff1673ffffffffffffffffffffffffffffffffffffffff168152602001600582015481526020016006820160009054906101000a900460ff1615151515815250508486815181106110d2576110d16115be565b5b60200260200101819052506001856110ea91906114f0565b945050505b80806110fa90611546565b915050610ebc565b508094505050505090565b600081600001549050919050565b6001816000016000828254019250508190555050565b6040518060e0016040528060008152602001600073ffffffffffffffffffffffffffffffffffffffff16815260200160008152602001600073ffffffffffffffffffffffffffffffffffffffff168152602001600073ffffffffffffffffffffffffffffffffffffffff168152602001600081526020016000151581525090565b6000819050919050565b6111c5816111b2565b82525050565b60006020820190506111e060008301846111bc565b92915050565b600081519050919050565b600082825260208201905092915050565b6000819050602082019050919050565b61121b816111b2565b82525050565b600073ffffffffffffffffffffffffffffffffffffffff82169050919050565b600061124c82611221565b9050919050565b61125c81611241565b82525050565b600061126d82611221565b9050919050565b61127d81611262565b82525050565b60008115159050919050565b61129881611283565b82525050565b60e0820160008201516112b46000850182611212565b5060208201516112c76020850182611253565b5060408201516112da6040850182611212565b5060608201516112ed6060850182611274565b5060808201516113006080850182611274565b5060a082015161131360a0850182611212565b5060c082015161132660c085018261128f565b50505050565b6000611338838361129e565b60e08301905092915050565b6000602082019050919050565b600061135c826111e6565b61136681856111f1565b935061137183611202565b8060005b838110156113a2578151611389888261132c565b975061139483611344565b925050600181019050611375565b5085935050505092915050565b600060208201905081810360008301526113c98184611351565b905092915050565b600080fd5b6113df81611241565b81146113ea57600080fd5b50565b6000813590506113fc816113d6565b92915050565b61140b816111b2565b811461141657600080fd5b50565b60008135905061142881611402565b92915050565b600080600060608486031215611447576114466113d1565b5b6000611455868287016113ed565b935050602061146686828701611419565b925050604061147786828701611419565b9150509250925092565b60008060408385031215611498576114976113d1565b5b60006114a6858286016113ed565b92505060206114b785828601611419565b9150509250929050565b7f4e487b7100000000000000000000000000000000000000000000000000000000600052601160045260246000fd5b60006114fb826111b2565b9150611506836111b2565b9250827fffffffffffffffffffffffffffffffffffffffffffffffffffffffffffffffff0382111561153b5761153a6114c1565b5b828201905092915050565b6000611551826111b2565b91507fffffffffffffffffffffffffffffffffffffffffffffffffffffffffffffffff821415611584576115836114c1565b5b600182019050919050565b7f4e487b7100000000000000000000000000000000000000000000000000000000600052604160045260246000fd5b7f4e487b7100000000000000000000000000000000000000000000000000000000600052603260045260246000fd5b600082825260208201905092915050565b7f5265656e7472616e637947756172643a207265656e7472616e742063616c6c00600082015250565b6000611634601f836115ed565b915061163f826115fe565b602082019050919050565b6000602082019050818103600083015261166381611627565b9050919050565b7f7072696365206d757374206265206174206c6561737420312077656900000000600082015250565b60006116a0601c836115ed565b91506116ab8261166a565b602082019050919050565b600060208201905081810360008301526116cf81611693565b9050919050565b7f7072696365206d75737420626520657175616c20746f20746865206c6973746960008201527f6e67207072696365000000000000000000000000000000000000000000000000602082015250565b60006117326028836115ed565b915061173d826116d6565b604082019050919050565b6000602082019050818103600083015261176181611725565b9050919050565b61177181611241565b82525050565b600060608201905061178c6000830186611768565b6117996020830185611768565b6117a660408301846111bc565b949350505050565b6117b781611283565b82525050565b60006080820190506117d26000830187611768565b6117df6020830186611768565b6117ec60408301856111bc565b6117f960608301846117ae565b95945050505050565b600061180d826111b2565b9150611818836111b2565b92508282101561182b5761182a6114c1565b5b828203905092915050565b7f706c65617365207375626d6974207468652061736b696e672070726963650000600082015250565b600061186c601e836115ed565b915061187782611836565b602082019050919050565b6000602082019050818103600083015261189b8161185f565b905091905056fea2646970667358221220b7c9cbc4be81b582f67c5753fbabb44c3cd96cf27cf3535aefdcdb72b852212364736f6c63430008090033",
  "linkReferences": {},
  "deployedLinkReferences": {}
}